:020000040000fa
:080000000002040000000000f2
:020000040000fa
:040008002e040000c2
:020000040000fa
:04000c002e040000be
:020000040000fa
:040010002e040000ba
:020000040000fa
:040014002e040000b6
:020000040000fa
:040018002e040000b2
:020000040000fa
:04001c002e040000ae
:020000040000fa
:040020002e040000aa
:020000040000fa
:040024002e040000a6
:020000040000fa
:040028002e040000a2
:020000040000fa
:04002c00e8030000e5
:020000040000fa
:040030002e0400009a
:020000040000fa
:0400340006030000bf
:020000040000fa
:040038002e04000092
:020000040000fa
:04003c002e0400008e
:020000040000fa
:040040002e0400008a
:020000040000fa
:040044002203000093
:020000040000fa
:040048002e04000082
:020000040000fa
:04004c002e0400007e
:020000040000fa
:040050002e0400007a
:020000040000fa
:040054002e04000076
:020000040000fa
:040058002e04000072
:020000040000fa
:04005c002e0400006e
:020000040000fa
:040060002e0400006a
:020000040000fa
:040064002e04000066
:020000040000fa
:040068002e04000062
:020000040000fa
:04006c002e0400005e
:020000040000fa
:040070002e0400005a
:020000040000fa
:040074002e04000056
:020000040000fa
:040078002e04000052
:020000040000fa
:04007c002e0400004e
:020000040000fa
:040080002e0400004a
:020000040000fa
:040084002e04000046
:020000040000fa
:040088002e04000042
:020000040000fa
:04008c002e0400003e
:020000040000fa
:040090002e0400003a
:020000040000fa
:040094002e04000036
:020000040000fa
:040098002e04000032
:020000040000fa
:04009c002e0400002e
:020000040000fa
:0400a0002e0400002a
:020000040000fa
:0400a4002e04000026
:020000040000fa
:0400a8002e04000022
:020000040000fa
:0400ac002e0400001e
:020000040000fa
:0400b0002e0400001a
:020000040000fa
:0400b4002e04000016
:020000040000fa
:0400b8002e04000012
:020000040000fa
:0400bc002e0400000e
:020000040000fa
:0400c0002e0400000a
:020000040000fa
:0400c4002e04000006
:020000040000fa
:0400c8002e04000002
:020000040000fa
:0400cc002e040000fe
:020000040000fa
:0400d0002e040000fa
:020000040000fa
:0400d4002e040000f6
:020000040000fa
:0400d8002e040000f2
:020000040000fa
:0400dc002e040000ee
:020000040000fa
:0400e0002e040000ea
:020000040000fa
:0400e4002e040000e6
:020000040000fa
:0400e8002e040000e2
:020000040000fa
:0400ec002e040000de
:020000040000fa
:0400f0002e040000da
:020000040000fa
:0400f4002e040000d6
:020000040000fa
:0400f8002e040000d2
:020000040000fa
:0400fc002e040000ce
:020000040000fa
:040100002e040000c9
:020000040000fa
:040104002e040000c5
:020000040000fa
:040108002e040000c1
:020000040000fa
:04010c002e040000bd
:020000040000fa
:040110002e040000b9
:020000040000fa
:040114002e040000b5
:020000040000fa
:040118003e030000a2
:020000040000fa
:04011c002e040000ad
:020000040000fa
:040120002e040000a9
:020000040000fa
:040124002e040000a5
:020000040000fa
:040128002e040000a1
:020000040000fa
:04012c002e0400009d
:020000040000fa
:040130002e04000099
:020000040000fa
:040134002e04000095
:020000040000fa
:040138002e04000091
:020000040000fa
:04013c002e0400008d
:020000040000fa
:040140002e04000089
:020000040000fa
:040144002e04000085
:020000040000fa
:040148002e04000081
:020000040000fa
:04014c002e0400007d
:020000040000fa
:040150002e04000079
:020000040000fa
:040154002e04000075
:020000040000fa
:040158002e04000071
:020000040000fa
:04015c002e0400006d
:020000040000fa
:040160002e04000069
:020000040000fa
:040164002e04000065
:020000040000fa
:040168002e04000061
:020000040000fa
:04016c002e0400005d
:020000040000fa
:040170002e04000059
:020000040000fa
:040174002e04000055
:020000040000fa
:040178002e04000051
:020000040000fa
:04017c002e0400004d
:020000040000fa
:040180002e04000049
:020000040000fa
:040184002e04000045
:020000040000fa
:040188002e04000041
:020000040000fa
:04018c002e0400003d
:020000040000fa
:040190002e04000039
:020000040000fa
:040194001004000053
:020000040000fa
:040198002e04000031
:020000040000fa
:04019c002e0400002d
:020000040000fa
:0401a0002e04000029
:020000040000fa
:0401a4002e04000025
:020000040000fa
:0401a8002e04000021
:020000040000fa
:0401ac002e0400001d
:020000040000fa
:0401b0002e04000019
:020000040000fa
:0401b4002e04000015
:020000040000fa
:0401b8002e04000011
:020000040000fa
:0401bc002e0400000d
:020000040000fa
:0401c0002e04000009
:020000040000fa
:0401c4002e04000005
:020000040000fa
:0401c8002e04000001
:020000040000fa
:0401cc002e040000fd
:020000040000fa
:0401d0002e040000f9
:020000040000fa
:0401d4002e040000f5
:020000040000fa
:0401d8002e040000f1
:020000040000fa
:0401dc002e040000ed
:020000040000fa
:0401e0002e040000e9
:020000040000fa
:0401e4002e040000e5
:020000040000fa
:0401e8002e040000e1
:020000040000fa
:0401ec002e040000dd
:020000040000fa
:0401f0002e040000d9
:020000040000fa
:0401f4002e040000d5
:020000040000fa
:0401f8002e040000d1
:020000040000fa
:0401fc002e040000cd
:020000040000fa
:040200002e040000c8
:020000040000fa
:040204002e040000c4
:020000040000fa
:040208002e040000c0
:020000040000fa
:04020c002e040000bc
:020000040000fa
:040210002e040000b8
:020000040000fa
:040214002e040000b4
:020000040000fa
:040218002e040000b0
:020000040000fa
:04021c002e040000ac
:020000040000fa
:040220002e040000a8
:020000040000fa
:040224002e040000a4
:020000040000fa
:040228002e040000a0
:020000040000fa
:04022c002e0400009c
:020000040000fa
:040230002e04000098
:020000040000fa
:040234002e04000094
:020000040000fa
:040238002e04000090
:020000040000fa
:04023c002e0400008c
:020000040000fa
:040240002e04000088
:020000040000fa
:040244002e04000084
:020000040000fa
:040248002e04000080
:020000040000fa
:04024c002e0400007c
:020000040000fa
:040250002e04000078
:020000040000fa
:040254002e04000074
:020000040000fa
:040258002e04000070
:020000040000fa
:04025c002e0400006c
:020000040000fa
:040260002e04000068
:020000040000fa
:040264002e04000064
:020000040000fa
:040268002e04000060
:020000040000fa
:04026c002e0400005c
:020000040000fa
:040270002e04000058
:020000040000fa
:040274002e04000054
:020000040000fa
:040278002e04000050
:020000040000fa
:04027c002e0400004c
:020000040000fa
:040280002e04000048
:020000040000fa
:100400004fb426000eff27000e01880000000000f8
:10041000000020000000e000020032000001200087
:1004200020028800140007006e0107000000e000b1
:1004300003003a0020c92400010020000200370018
:100440000000200001002000810f70000100320038
:100450000f000700000020000000e0000200320052
:100460000000020000000000564e020000000000e4
:100470000040da000000fe00408320000000e000a1
:1004800002003200002020009001880000000600d9
:10049000a1028800800478000000eb001f003700f4
:1004a000e284440054a0b4009905ba00e2844400f8
:1004b00054a0b4009906ba00e284440054a0b400e9
:1004c0000006eb00476fde00fd07b200ae018800ba
:1004d000636ce10003003a000ad801000000eb0061
:1004e0000e003700606ce10008003a00004deb00a0
:1004f0000a05e800020039003420ec000af0a000f0
:100500008b05e900f9ff3e00040037006168e10057
:10051000010032000086eb000b00070019c7ba008b
:100520000e04e0001905ba0003003a000a00e000da
:10053000dbff3a0000000600fe07b200ae028800b2
:100540008a047800f5ff37000cd0a300e20f4d00bd
:100550001c00390089027800354dba000a05e80010
:10056000020039003420ec000af0a0008b05e900fd
:100570000f003200254dba000a05e80002003900dc
:100580003420ec000af0a0008b05e90008003200de
:100590000c00e0000600320015cdba000a05e800a4
:1005a000020039003420ec000af0a0008b05e900bd
:1005b0008984e80054a0b4000b00e000e2ff3a0098
:1005c000000006009902ba00055d78008b05e9007d
:1005d000f7ff3200c82ade00055d78008b05e900d0
:1005e000f3ff32000c00e000f1ff320019ddba0029
:1005f000eeff3700f404040000000000c00e040009
:100600000000000000000400000000003200f800bc
:100610003400f800881f780018002000a801880026
:100620000820200098018800000000004f04780096
:1006300019f0ef000068a9003400f9003200f90059
:10064000004006003200f8003400f800881f7800ef
:1006500018002000a80188000820200098018800c8
:10066000000000004f0478001af0ef0000e8a90035
:100670003400f9003200f900004006003600f800ae
:10068000809fbe00829fbe00849fbe00869fbe00ea
:10069000881f78003200f8003400f80010002000b5
:1006a000a0018800002020009001880000000000c8
:1006b00080808000c0148800d01488009202f80066
:1006c0004010f900801480000004210010f0a20006
:1006d000d0ff27004010b400e60f400001003600b4
:1006e00018f0ef00a0808000f10f2000810f500073
:1006f00003003a001430ef001610aa000200370081
:100700000000e800a08088003ed0bf00e14f40001c
:1007100009003a00b08080004800dd00a180800020
:100720000100400000004000c1662600008040003b
:100730000182800001087800b88080004844dd0014
:10074000a08080000004440008044400c066260025
:100750000804400018007800fd230700000c780012
:100760001610e20009003a00a08080000010b000de
:1007700000004000c16626000080400010007800a4
:10078000ac2307008080880007003700a08080002d
:1007900000004000c1662600008040001000780084
:1007a000a4230700808088000788a9003400f9008e
:1007b0003200f9004f0478004f03be004f02be0024
:1007c0004f01be004f00be003600f9000040060099
:1007d000809fbe003200f8003400f80010002000b6
:1007e000a001880000202000900188000000000087
:1007f0000028a900207180000080ea0061006000ec
:10080000217180000100a100810070002171880029
:100810003400f9003200f9004f00be00004006002d
:10082000801f78003200f8003400f800100020002b
:10083000a001880000202000900188000000000036
:1008400040158000a0c2a9000b68a9003400f9007f
:100850003200f9004f007800004006000040da0046
:100860000000fe000a00fa0011002000b1bf9f0046
:10087000c0bf9f006a805700330607004fb897003b
:100880000080fa00000006000a00fa00e20f5000a3
:100890001f003e00005a8300e10f500006003200a6
:1008a0008023200045232000232320000423200050
:1008b0000000e00004003a008022200045222000d1
:1008c0002322200004222000060028009403630055
:1008d00002003a0007087800140a730013a8a30066
:1008e00001003a0013a0a0000200780005003700c4
:1008f0001388a300feff32003102fb00840a780057
:100900000000e9000000e000f9ff3a0008003700ad
:1009100033002000b3bf9f00c0bf9f00d1bf9f0026
:10092000e2bf9f006a805700090607006fb9970071
:10093000020078000080fa00000006000a00fa00b9
:1009400051002000b1bf9f00c0bf9f006a805700c8
:10095000010607005fb897000080fa00000006005b
:10096000889fbe0080047800105a83000000e000d9
:1009700004003a000e0007000084eb000000e000d5
:1009800008003500185a83000900e0000500320015
:1009900009004400060007000000e00001003d00df
:1009a0000084eb00080078004f04be000000060041
:1009b000800078000100e00003003a000000200001
:1009c000105a8b00000005000080eb0002002000a0
:1009d000828f500002003e00115a8b000000eb0095
:1009e0000000060000000500889fbe00000478009b
:1009f00001007800820478008801780009017800fd
:100a000011002000d8010700890f500001003200ba
:100a10000004eb00080078004f04be000000060050
:100a20000000fa00e88157004fb9970041a926005d
:100a3000404f2000020007000080fa00000006007e
:100a40006200fa00889fbe008a1f780000057800c7
:100a500081047800020478008300780080f92f0078
:100a60000f004000710407009a979f00a9979f000c
:100a70000000eb00b09f9f001885fb008a04fb007c
:100a80000a05ea004f55de0050022000808f540016
:100a90000d003200e10f55000b003a000a0178000a
:100aa000880078002f9097009f9197000300010025
:100ab000a0979f000000e0008e0032003f98970052
:100ac0000000e800b09f9f000a044400500220008c
:100ad000808f5400040032000900e000e6ff3a0075
:100ae0003f989700840037000000eb00909f9f0024
:100af000809f9f00f0979f00e0979f00d0979f00f6
:100b0000c0979f0007003700a1b2260001005000e7
:100b100000004000e1b12600808040005f9897000f
:100b200011007000d09f9f008804780009047800ad
:100b3000384578008a00fb00a0b22600ef010700cc
:100b40000000e000f0ff3a00a1c2b300814f550061
:100b50000e003a00cf8897000180e900c08f9f0007
:100b600010007800c09f9f000000e00005003d00dd
:100b70000000ea00c09f9f005f9897000020a0003f
:100b8000d09f9f000904e8000f003700c09f9f001e
:100b90000000eb0005003700f2ff2700820f500035
:100ba00002003200ea00b900008040000904780029
:100bb00088047800b900fb000103b100e98f500000
:100bc000f5ff3600c09f9f00e0c2b300984f1000b1
:100bd000020032000080eb0019003700a0c2b30011
:100be000d84f100007003a00cf8897000180e90035
:100bf000c08f9f0010007800a09f9f000804e800ad
:100c0000100037000000eb00a09f9f0088007800d4
:100c100005003700f3ff2700830f50000200320069
:100c2000ea00b90000004100010478008800780063
:100c30003101fb000203b100e90f5100f5ff36005e
:100c4000a09f9f00984478008900fb0060b12600b7
:100c5000aa0107000000e000020032000804e800da
:100c6000010037008044eb00c97f9f0080c6b300bd
:100c700080cf540004003a0098cf14000a003a00d4
:100c80006640500006003700c0c6b30080cf540055
:100c900005003a0098cf140003003a006540400078
:100ca000c07f9f000804e8001801fb00e3fb2f0051
:100cb0008f81410081f92f008f804000a0f92f0023
:100cc0000f004000100007000000e00009003a009b
:100cd000e1fb2f008f804000a0f92f000f004000a3
:100ce000160307000000e000020035000804e800d9
:100cf00061ff37000080eb004f0578004f04be0015
:100d00000080fa0000000600881f7800e4c6b300e7
:100d1000844f5100c600320010003c006b4252006c
:100d2000844f51001800320005003c0054c2b3004b
:100d3000844f5100fe00320084c5b3000f0037001d
:100d400044c6b300844f5100150032006542420092
:100d5000844f5100f9003a001100370004c7b30076
:100d6000844f5100e50032005c00350065424200ce
:100d7000844f51005900320063424200844f5100b9
:100d8000ee003a00550037001181e9008208780032
:100d9000f00090008181410092497800ed00370019
:100da00020629000c5c6b300854f520008003a008b
:100db00091027800648252008408780094029000c6
:100dc000140278004fabde00860378001300370072
:100dd00015c7b300854f520003003200a5c6b3000b
:100de000854f520008003a00910278006882520054
:100df000840878009402900024039000b4039000cb
:100e000014027800050037001182e9008408780098
:100e100014027800cfa2de00612bb9000498be0056
:100e20000690be00a060900088c6b30088cf500036
:100e30000d00320028c6b30088cf500004003a00ed
:100e40000402fb00cfa2de00612bb90008003700ce
:100e500048c7b30088cf5000030032006644440006
:100e600088cf500004003a00cfa2de00612bb90009
:100e70000498be000690be00100278009002900018
:100e800020039000b0039000f0009000e00f5200ab
:100e9000e08f5a00e00f5b00e08f5b0003003d0035
:100ea00001824100d5c2b3000a0037000012900051
:100eb0000418a3000300320001824100b5c2b30050
:100ec000040037000408a3005400320001824100ee
:100ed00005c2b300054a78004e003700206290003a
:100ee000c5c6b300854f520007003a009102780052
:100ef0006482520084087800940290006033b80045
:100f0000140278001300370015c7b300854f520054
:100f100003003200a5c6b300854f520008003a0016
:100f20009102780068825200840878009402900050
:100f300024039000b40390001402780005003700e9
:100f40001182e90084087800140278008002eb0026
:100f50006033b8000498be000690be00a060900008
:100f600088c6b30088cf50000d00320028c6b300f9
:100f700088cf500004003a000482fb008002eb009e
:100f80006033b8000800370048c7b30088cf50006e
:100f9000030032006644440088cf500004003a0049
:100fa0008002eb006033b8000498be000690be00db
:100fb000801090000138a300180032001002780061
:100fc0009002900020039000b0039000e00f5200c8
:100fd000e08f5a00e00f5b00e08f5b000f003200f3
:100fe00081c7b300814f51000300320081c5b300b7
:100ff000814f510009003a00f00090000182410049
:1010000005c3b300054a78008100e8000182410071
:10101000024a78008100e80071009800f00090001a
:101020008181410063009800824078003e003700d3
:10103000a0619000c4c6b3001181e90084cf5100c3
:10104000220032000a003c006442520084cf51006a
:101050002500320004c2e80084cf510013003200a2
:101060006842520084cf51001e003a000a00370047
:1010700044c7b30084cf51001b00320066424200d7
:1010800084cf5100180032006942520084cf5100d1
:1010900014003a00050037008208780092007800ba
:1010a00040589000804878002c0037008208780073
:1010b00092007800600a9000cfa2de00612bb90098
:1010c0008498be008690be00240037008208780015
:1010d0009200780060099000cf91de008288be0007
:1010e0001e0037001181e900820878009200780024
:1010f0006008900080087800180037001181e9002e
:101100008208780012027800cfa2de00612bb900bd
:101110000498be000690be00f0009000818141005e
:101120006300980081c7b300c70007000b003700b9
:10113000f00090008181410005003700f000900030
:10114000818141000204e00001003a0052c2b30074
:10115000824978008100e800710098000000eb00ef
:101160004f04780000000600889fbe008a9fbe00e2
:101170008c9fbe008e1f7800000678000104780066
:1011800002007800830478008881b90002077800a3
:101190000e00e000420032000800e0004100320092
:1011a0008e057800c900900069009000808f500083
:1011b00004003900090078005c0007000000e0002e
:1011c0002900350000402000190060000a003200ac
:1011d0000b017800a10020000c0078003600070009
:1011e000800678000d00e000060032006105160060
:1011f0000a854600040037000b0578008006eb00e6
:10120000010037000b05780049009000e9009000cc
:10121000808050008a8f5000020031000105780064
:101220008006eb000a0178008c0078002c00070093
:101230008a855500490090000a004000c0049800cb
:101240000d00e0000400320009007800dd02070014
:101250000000e00004003a000b00e0000200320051
:101260000a064600cfff370000802000190060000a
:101270000200320009007800d202070000c02000fe
:10128000190060000200320049009000e00498005c
:101290008b055700110009008885d8000100370030
:1012a0000000eb004f0778004f06be004f05be0060
:1012b0004f04be000000060003003700b0cf10004e
:1012c000050032000201e900800178000200e00020
:1012d000faff3a0000000500030078000000060055
:1012e0008001780002003700b15978000201e9005e
:1012f0000200e000fcff3a00000006000200370098
:101300000304e000060032000001780002007800cb
:10131000b041780081cf5100f9ff3a000100370059
:101320000001eb000200780000000600889fbe006c
:101330008a1f780000047800c800900068019000bf
:101340000000eb00828f50003c003900180078004c
:101350002200290002016000e20f51000700320064
:10136000012024000000e00001003d0001202000d9
:10137000008c70000080eb00300037000200260077
:1013800002006000820f500009003a00380090000f
:10139000808f50000600390008007800890207009d
:1013a000800078000080eb000100e00023003a009c
:1013b0001805780000c020000000650018003a0001
:1013c000a80490006002200008004000808f5400b4
:1013d00013003a0000202000270307002004980093
:1013e0000000e00005003a00290498004904980034
:1013f0008904e80039049800080037000a60a0005a
:101400000a0c7800400498000120200080804000f1
:1014100031049800400c9800500c98000702070017
:101420002800900050049800380090006004980054
:1014300000002600180c70000000eb004f0578003b
:101440004f04be0000000600fc874700889fbe00d6
:101450008a9fbe008c9fbe008e1f78000006780019
:1014600080c5b30080cf50000a00320077404000b2
:1014700080cf50000a0032006940400080cf500009
:101480000b00320050b0260080bf9f00ae0020004d
:101490000a00370042af260082bf9f0006003700d7
:1014a00053b0260083bf9f008e002000030037004a
:1014b00054b0260084bf9f000e0120001c0278005b
:1014c0009c0290002c039000bc0390000605be0017
:1014d0000404be0040c6b30080cf500003003200b9
:1014e0006540400080cf50000b003a00e00f5200f2
:1014f000e08f5a00e00f5b00e08f5b0006003d00cc
:101500006000b8006011b8000404500085845800e1
:101510000605590087855900e80f5700040032007e
:1015200040002000f00f57003c003a000100370057
:1015300030002000e00f5400e08f5c00e00f5d0001
:10154000e08f5d0004003a00dc0890008d0120006f
:101550000100e000070032008e00e9008880600092
:101560008fba97008180420091407800f1ef9f0090
:101570007d012000800078008100e9000500330033
:101580008b05d1000a85d3008984d3000884d30059
:10159000f9ff3700089ebe000a96be001300370010
:1015a0008d06e9008e00e900848060000fb9970085
:1015b000810041001141780083fd2f008d814100a1
:1015c00082f77900800178008301e900050033008b
:1015d0008783d1000683d3008582d3000482d300a1
:1015e000f9ff3700049ebe000696be001c0278007c
:1015f0009c0290002c039000bc039000e00f52006e
:10160000e08f5a00e00f5b00e08f5b009300340036
:101610000d00e000e2ff3c00900037002c609000dd
:1016200081c6b300814f50000b00320006003c0021
:101630000004e00008003200e6c05000814f500076
:1016400052003a0004003700c1c6b300814f500079
:101650004e003a00230037000800e00004003a0082
:101660005c0890008d0120000000e00007003200bf
:10167000110009000e84d8000fba97000100420043
:1016800010407800f0ef9f007d012000110009005c
:101690000e84d8000b003700110009000e04d8009a
:1016a0008d06e9008e81b900020454008fb89700be
:1016b000088440009841780082fd2f000d01410010
:1016c00083777900000478000800e000020032000f
:1016d0000d00e000f0ff3c00cfc4de00614db9001a
:1016e00027003700e00f5400e08f5c0004003a0050
:1016f0005c0890008d0120000000e000080032002e
:101700006171b9000800be00b40207000fba97006b
:101710008000420091407800f1ef9f007d012000a1
:101720006171b9000800be009c0207000c00370080
:101730006171b9000800be00890207008d06e9004a
:1017400080f1b900020454008fba97000884420067
:101750009841780082fd2f000d01410083777900c8
:101760000004be00e00f5000e08f5800020032007d
:101770000d00e000eeff3c004fcdde008a05780052
:10178000089ebe000a96be0034003700e00f5400e9
:10179000e08f5c00e00f5d00e08f5d0004003a0028
:1017a0005c0890008d0120000000e0000a0032007b
:1017b0006172b900612bb9000800be000a01be00c9
:1017c000310307000fba9700800042009140780073
:1017d000f1ef9f007d0120006172b900612bb9001b
:1017e0000800be000a01be00200307000e003700fb
:1017f0006172b900612bb9000800be000a01be0089
:10180000250307008d06e90080f2b90004045400a6
:101810008fba9700088442009842780084fd2f0018
:101820000d02420085777a00009ebe000296be003f
:101830001c0478009c0490002c059000bc059000ce
:10184000e00f5400e08f5c00e00f5d00e08f5d0072
:10185000020034000d00e000e5ff3c00e80f5700f7
:1018600010003a000c1090000038a3000d00320068
:10187000f78f560006003e0080fd2f000d0040004f
:10188000ef40780000c3b30080cf50000500320065
:1018900002c3b30071fd2f008d8040008d06e9006a
:1018a00082f7780078811600120e98006c00900084
:1018b00083fd2f008f8141008d80410088fe07004d
:1018c0001c089000dc089000810f500006003d00cd
:1018d00000805000000e98000c1090000040a10005
:1018e000001698000f0037000100e0000d003d00d9
:1018f0008c109000f4806000f08f500009003a00d6
:101900007c099000fc009000810051000c099000bf
:1019100082805000008050004240a9000100340045
:10192000000e98004f0778004f06be004f05be001e
:101930004f04be00cf01b100000006000400fa0011
:10194000889fbe008a9fbe008c1f7800000478002c
:1019500001067800f80d9000780090008085550011
:101960000808900080855500180890008085550073
:101970002808900080855500380890008085550023
:1019800048089000808555000002220090bf9f000b
:1019900000032300a0bf9f00081090000028a300b0
:1019a00015003a000b00e000130034000b0578002e
:1019b0008a047800e20f550001003600290020005b
:1019c000c801900009017800ee805700580090008f
:1019d00003000100500498000000e0008c00320079
:1019e0006808900009004000600c98000905550047
:1019f0004240a900eeff3c00780190000200e000a8
:101a00000c003400c80190008c0078005800900051
:101a100003000100500498008080eb000000e0000b
:101a20007c003200e80890007800900000804000c0
:101a3000600c9800880c90000900e0001100340050
:101a400009057800e28f5400010036002a002000ca
:101a5000c80190000a017800ec80570058009000ff
:101a600003000100500498000000e000680032000c
:101a7000680890000a004000600c98008a845400b6
:101a8000edff3700180990000200e0000c00340060
:101a9000c8019000e8009000580090000300010089
:101aa000500498008080eb000000e00059003200f4
:101ab000e80890001808900000804000600c980032
:101ac000a80c90000900e00011003400090578001e
:101ad000e28f5400010036002a002000c801900067
:101ae0000a017800ec8057005800900003000100c4
:101af000500498000000e0004500320068089000a3
:101b00000a004000600c98008a845400edff370002
:101b1000380990000200e0000e003400e800900058
:101b20001808900080804000c80190005800900084
:101b300003000100500498008080eb000000e000ea
:101b400034003200e808900038089000008040001f
:101b5000600c9800c80c90000900e00011003400ef
:101b600009057800e28f5400010036002a002000a9
:101b7000c80190000a017800ec80570058009000de
:101b800003000100500498000000e0002000320033
:101b9000680890000a004000600c98008a84540095
:101ba000edff3700081090008000eb000028a30034
:101bb000180032000b00e000160034008b0478009f
:101bc00009057800e28f5400010036002a00200049
:101bd000c80190000a017800ee805700580090007c
:101be00003000100500498000000e00008003200eb
:101bf000680890000a004000600c98008a84540035
:101c00004240a900eeff3c008000eb0001003700dd
:101c10008080eb00010078004f0678004f05be0081
:101c20004f04be000080fa000000060001087800a2
:101c30000000060000ec20009d003700881f78009f
:101c4000c8b326001804e00003003a00f9ff0700bb
:101c500020c0b300004c78004f047800000006005c
:101c6000889fbe0000047800080078005500070037
:101c70008004780000042000180060000200320098
:101c800028009000970007000000eb002004980057
:101c9000384090000004e000050035000000fb0023
:101ca000f0fa07000000e000010032008084eb0041
:101cb000181090000000e000080032001ffb070031
:101cc0000000e000010032008084eb00181090005a
:101cd000840007000000eb001014980000082000aa
:101ce00018006000150032000001eb006000b80031
:101cf0000202d00043ae260003024200940f1400fb
:101d000005003a000000400081804800008041004a
:101d10000008eb000600370061004000e08048004a
:101d20000201e800e80f5000e08f5800f0ff3a0091
:101d3000080078006b0007000e003700000c7800e8
:101d400000c0eb0030449800600220000800400012
:101d5000200498004004980050049800400c98001b
:101d600060049800500c98007004980076004400bd
:101d7000000c9800090078004f04be000000060027
:101d8000881f78000004eb006140b800e2ff2f00dc
:101d9000f3ff2f001401070022af2600800041004e
:101da000110078000000e00001003200acff0700e5
:101db0000804e800e80f5400f3ff3a004f047800ed
:101dc00000000600889fbe00000478000800e000c4
:101dd0000f003a008004eb008800d00040ae2600df
:101de00000804000100078000000e0000400320095
:101df000f4ff07000000e00001003d008084eb00dc
:101e00000804e800e80f5400f3ff3a00250037000b
:101e100000002200180060008004eb002100320066
:101e2000a80490000f0037000901510038409000cd
:101e30000000fb008900780093fa07000000e00032
:101e400007003c00280090004004980060049800bf
:101e5000500c98001890a0008084eb00110037000f
:101e60008084440048019000828f5400eeff3900c6
:101e700028009000400498009800780002c02000dc
:101e80000281600001003a003800900001e8a300e0
:101e9000020032006004980001003700500c9800e6
:101ea0008004eb00090078004f04be00000006002b
:101eb000010020000100e000090032000100800064
:101ec0000100e000060032008100e9000100880006
:101ed0008100d000020080008280400080087800ed
:101ee000000006000000e0002f003200c001780072
:101ef000e38f51002c0036000308a3002a003a00ab
:101f0000d15983000100e00002003200810f50002f
:101f10000400310011009800d0598b0016003700e2
:101f200082007800110190000200e00002003200ff
:101f3000800f5100faff39001102780084824000be
:101f4000850f500018003900808f520003003a00be
:101f50008308420001007800070037000200e0001b
:101f60000300320083014000830f51000e0039004e
:101f70001200980090009800900090000100e0008e
:101f80000900320010014000828f500006003a0024
:101f900082b326000009eb0010017800110841000f
:101fa000910090001100980000000600889fbe007c
:101fb00000047800c15983000100e00002003200f3
:101fc000010078000d003700d1598300a0b326002e
:101fd00004003700910f5400250036000180e8000e
:101fe000910090000100e000faff3a001000370075
:101ff000920f54001e0036000280e80010017800a5
:102000000200e000faff3a0011017800d159830084
:10201000a0b3260004003700910f540014003600ce
:102020000180e80091009000828f5000faff3a0092
:10203000f9598300888f540001003100880478002a
:1020400009007800360007000000e00004003a00b4
:10205000888f5400050032008904d100f5ff370055
:10206000091878009fff0700d2ff37000000eb003f
:102070004f04be0000000600881f78006304400083
:102080000800a1008000eb00800f54002100360002
:10209000e30f540001003e004800200008007800d3
:1020a000c2ff07008000eb000000e00019003200d2
:1020b000900078009101780064815100880f5100f0
:1020c000030031001101900002087800070037007a
:1020d00008814000020878009101900013019800e7
:1020e00010017800110914008808780010017800a8
:1020f0000000eb000200e0000400320092019000ba
:102100000300e000010032000280e800c0598b00ab
:102110008180e800010078004f047800000006008c
:10212000800078000000eb000100e00005003400b2
:10213000010078000afa0700e10f400001003a00b0
:102140000000eb000000060000c0da0000000600fe
:1021500000c0da000000060000c0da00000006003f
:10216000839f68000100e00002003d006000100055
:10217000e08018000300e00002003d006001110053
:10218000e0811900050007004f00e00002003b005d
:1021900060001000e0801800000006006022b80017
:1021a000060220000000d0008180d2000482d2000c
:1021b0008582d2000000a0000202520083825a00f1
:1021c000030031000202420083824a000000a100a5
:1021d0000603e900f3ff3a0000000600efff0700e6
:1021e0000400be0000000600020ab900001bb9008e
:1021f0000200b80081004200810043000000060098
:10220000889fbe008a9fbe0030044200b0844a000e
:1022100030054b0090854b006000b1000898be006f
:102220000a90be000440e10005c8e10006d0e100cc
:1022300007d8e10002003100680040001008e80003
:102240004f05be004f04be0000000600889fbe0080
:102250008a9fbe0010047800900490002005900032
:10226000b00590000418540005985c0006185d0045
:1022700007985d00110020000440e10005c8e1005e
:1022800006d0e10007d8e100010039008000eb0032
:10229000108810004f05be004f04be00000006006d
:1022a0001200fa00889fbe008a9fbe008c9fbe006d
:1022b000e0b79f00f1b79f0082bf9f0093bf9f00d0
:1022c0000605be000404be000000eb00d0b79f006e
:1022d000c0b79f00b0b79f00a0b79f0090b79f0006
:1022e0000006eb005fb19700cfb09700820141007c
:1022f0003fb097000200e00004003d0037000700f7
:102300007e805700beff0700030037003300070040
:102310007e805700cdff0700dfb697000d00e0007c
:102320000c0035006fb29700ffb297000fbb97000b
:102330009fbb970010002000010020006011b80032
:1023400000027200818272000203730083837300b3
:102350001b0007000c06e80001042000810f560056
:10236000e0ff3a000d00e00004003d000802be005e
:102370000a03be007e805700a1ff07005fa89700f8
:102380000000e00005003a001fb29700afb29700ce
:102390003fb39700cfb39700090007006fb09700d5
:1023a000ffb097000fb997009fb997004f06be0086
:1023b0004f05be004f04be000080fa00000006007a
:1023c0000100070000000600a4b79f00b5b79f00fa
:1023d000c6b79f00d7b79f00000006004f09de0078
:1023e00082817100b3b79f004f01de008180400001
:1023f00082807000a1b79f008fb097004f09de0068
:10240000000040000200700090b79f007fa8970076
:102410004f01de00818040008280700081b79f0004
:102420000d0007004f3ade0000004000040070007d
:10243000f0af9f00080007000402420085824a00b6
:1024400006034b0087834b00dfff07000802be0036
:102450000a03be00000006002fb29700bfb297002b
:102460004fb39700dfb3970000000600881f780085
:1024700018002000881f780089ff07008f87e90077
:102480004f04780000000600801feb0084ff070067
:102490008f87e90000000600889fbe008a9fbe006b
:1024a000e00f5000e08f5800e00f5900e08f590016
:1024b0000c003d006044b8006055b80000005400b6
:1024c00081805c0002015d0083815d0018002000b6
:1024d0001500070008003d00180007000004eb008d
:1024e000050037000004eb000f00070002003d006c
:1024f0001200070018002000dcff07000800e000c1
:10250000060032006022b8006033b80000005200bc
:1025100081805a0002015b0083815b004f05be0091
:102520004f04be0000000600e00f5200e08f5a008a
:10253000e00f5b00e08f5b00000006006044b80025
:102540006055b8000402540085825c0006035d00fb
:1025500087835d0000000600889fbe008a9fbe0042
:102560008c1f7800e00f5000e08f5800e00f5900fa
:10257000e08f59000d003d006044b8006055b80080
:102580000000540081805c0002015d0083815d00d9
:102590001c0020000820e10009a8e1000ab0e100c9
:1025a0000bb8e1000d003d00080037000006eb000d
:1025b000e00f5200e08f5a00e00f5b00e08f5b00fd
:1025c00006003d006044b8006055b80004025400a5
:1025d00085825c0006035d0087835d00aaff07001b
:1025e0000c00e000060032006022b8006033b80042
:1025f0000000520081805a0002015b0083815b0071
:102600004f0678004f05be004f04be0000000600d4
:020000040000fa
:10261000ffff000003000000fbff000006000000b9
:10262000faff000005000000fcff000003000000ae
:10263000feff000002000000fdff0000030000009c
:10264000fdff000003000000feff0000010000008d
:10265000ffff000001000000ffff0000010000007c
:10266000ffff00000100000000000000ffff00006d
:1026700001000000ffff000001000000ffff00005c
:1026800001000000ffff000001000000ffff00004c
:10269000f4ff0000cfff0000b8ff0000e6ff0000dd
:1026a0008400000051010000420200002d030000e0
:1026b00005040000b204000036050000910500008a
:1026c000c0050000dd050000bd0500009e050000fe
:1026d0006305000030050000f5040000c30400009d
:1026e0008804000053040000260400000d040000cc
:1026f000140400002a040000590400008f040000a4
:10270000ad040000c9040000a80400007604000025
:102710000204000072030000be020000f20100008b
:102720001c010000420000005fff00005dfe000091
:102730002efd0000c1fb000015fa000039f8000072
:1027400031f600001ef4000003f2000004f0000067
:1027500029ee00007eec000010eb0000dce9000038
:10276000ebe800002ae80000a6e700004ae70000c6
:1027700020e700000fe7000026e700004be700001d
:102780008ce70000e0e7000041e80000bbe8000043
:102790003fe90000d3e9000080ea000036eb0000ca
:1027a0000dec0000eeec0000e5ed0000daee0000bc
:1027b000e0ef0000e6f0000004f200002ff300005c
:1027c0007ef40000e3f500006df7000019f9000049
:1027d000e0fa0000d8fc0000dbfe0000120100005f
:1027e000390300008f050000cb070000250a000018
:1027f000750c0000cf0e0000211100007b130000bb
:10280000c91500001e1800005d1a0000a01c000081
:10281000ce1e0000ed20000006230000fb24000077
:10282000ed260000b12800006b2a0000082c0000f3
:10283000952d0000ff2e0000523000008031000076
:10284000923200007a3300004a340000eb3400007a
:1028500074350000db3500001636000044360000f9
:102860003f3600002c360000f4350000a335000090
:1028700034350000ad3400000c3400005433000047
:10288000803200008f3100007f300000532f0000a5
:10289000042e0000a42c00002e2b0000ac29000008
:1028a000202800008f260000f4240000642300008c
:1028b000c6210000332000009a1e0000011d000008
:1028c0006b1b0000cd1900003318000093160000a8
:1028d000ec1400004813000094110000eb0f0000fe
:1028e0002c0e0000760c0000b10a0000ef0800007a
:1028f000250700005a05000088030000b801000009
:10290000e1ff000010fe000037fc000068fa000044
:102910008ef80000c6f60000eef400002bf3000075
:102920005cf100009def0000d6ed000023ec0000fc
:1029300060ea0000b8e8000005e7000060e500007c
:10294000bce3000020e200008be00000fbde0000a2
:1029500072dd0000f0db000075da000003d9000032
:102960009ad700002cd60000d1d400007bd3000001
:1029700035d20000dfd000006dcf0000d7cd0000c1
:1029800013cc000042ca000055c8000083c60000f6
:10299000bcc400001ac30000b1c100007dc000002b
:1029a00090bf0000f9be0000a7be0000bcbe000042
:1029b00008bf0000a2bf000079c0000090c1000065
:1029c000dac200004fc40000c6c5000042c70000c4
:1029d000a1c80000d6c90000d8ca00008ecb0000f4
:1029e00001cc000016cc0000e7cb00005ecb00005d
:1029f0008fca00007ec9000037c80000b9c60000b9
:102a000020c5000064c300009dc10000cdbf0000d0
:102a1000f9bd000034bc000079ba0000cab800005b
:102a20003fb70000bcb5000066b4000023b300004f
:102a300000b2000003b100001cb000005baf00005a
:102a4000b8ae000034ae0000cbad00008bad00008e
:102a500055ad000056ad000054ad000092ad000031
:102a6000cbad00003aae0000baae00005baf000094
:102a700020b00000fcb0000000b2000019b300005c
:102a800064b40000bdb500004ab70000e9b800001a
:102a9000b2ba0000a0bc0000a4be0000d8c0000074
:102aa0001dc3000090c5000015c80000c0ca00008a
:102ab00084cd000060d000005bd300006bd6000026
:102ac00089d90000cadc000007e0000067e30000cd
:102ad000c1e600002eea00009ded00000ef10000ae
:102ae00086f40000f5f7000066fb0000d5fe00004c
:102af0004302000070050000c6080000160c00002c
:102b00006d0f000089120000b4150000a718000026
:102b1000831b0000571e0000f420000099230000d2
:102b20000f26000078280000d62a00000a2d000099
:102b30004b2f00005b3100006f3300006835000050
:102b40005537000033390000053b0000be3c000053
:102b5000793e00001e400000ce410000714300009d
:102b600011450000b34600003b480000cc4900007e
:102b70003b4b0000a54c0000fd4d0000404f000005
:102b8000745000009a510000aa520000b253000095
:102b9000a75400008f5500007356000042570000f4
:102ba00014580000cf5800008f5900003d5a000013
:102bb000eb5a0000925b00002c5c0000cb5c000034
:102bc000595d0000e95d00006f5e0000fe5e0000e0
:102bd0006b5f0000d55f000050600000d160000016
:102be0003a610000ac610000046200005562000020
:102bf000a2620000d4620000116300003263000092
:102c00005363000073630000786300008f6300006b
:102c100086630000896300007e6300006b63000030
:102c20005c6300003a63000021630000f36200006f
:102c3000d46200009d6200007462000038620000ef
:102c400000620000bd6100007c610000286100009e
:102c5000de6000008260000025600000b95f0000b7
:102c6000525f0000e25e0000865e0000245e00000d
:102c7000c95d00006e5d0000095d0000995c000008
:102c8000205c00008a5b0000ef5a0000365a00000a
:102c90007259000096580000b3570000bb56000060
:102ca000c6550000bc540000b3530000a2520000ff
:102cb0009c5100008e500000874f0000614e0000c4
:102cc0004c4d00001c4c0000034b0000e549000087
:102cd000e6480000ec47000020470000584600008e
:102ce000c245000031450000c84400006d440000aa
:102cf00022440000ed430000b8430000934300006d
:102d00006f4300004543000020430000ef420000f5
:102d1000b74200007442000022420000be410000a1
:102d2000474100009c40000034400000933f0000f9
:102d3000853e0000813d00004c3c0000143b00003b
:102d4000cc390000713800000c3700008f350000ce
:102d5000013400005f320000a1300000d32e0000db
:102d6000e02c0000e42a0000bf2800008d260000af
:102d70003f240000d8210000631f0000ce1c00008b
:102d8000321a000080170000ba140000fa11000087
:102d9000100f0000410c00004d0900006806000003
:102da0007b030000880000009ffd0000b9fa0000ce
:102db000d0f70000fef4000029f2000064ef0000ec
:102dc000b3ec0000fbe900006fe70000d1e4000075
:102dd00064e20000e9df000099dd000043db000051
:102de00011d90000ddd60000cbd40000bad200001b
:102df000c2d00000d2ce0000f4cc000023cb0000f3
:102e00005ec90000a4c70000fbc500004fc400005d
:102e1000bfc2000025c10000a0bf00001ebe000010
:102e20009dbc000035bb0000bfb9000064b80000c5
:102e300005b70000afb5000067b400001db3000087
:102e4000e1b10000aeb000007aaf00005fae00005c
:102e500036ad000021ac000007ab0000f4a9000073
:102e6000e6a80000e3a70000e2a60000f8a5000025
:102e70000ea5000034a4000073a30000a8a2000067
:102e800007a2000059a10000c9a000003ea0000058
:102e9000c09f00004e9f0000e29e0000899e00003f
:102ea000289e0000eb9d0000929d0000699d00009f
:102eb0001f9d0000029d0000cc9c0000b49c0000ff
:102ec000969c0000859c0000779c0000789c000088
:102ed000709c00008b9c0000879c0000b69c00004a
:102ee000c29c0000f69c00001e9d00004f9d00004b
:102ef000929d0000ca9d0000159e00005f9e00008c
:102f0000ae9e0000089f00005f9f0000bf9f000072
:102f100029a000007fa00000eca000005ea100003e
:102f2000eea100004ea2000099a20000faa200004b
:102f300051a30000c5a300003ba40000b9a40000f9
:102f40004ba50000d6a500006fa6000009a7000051
:102f5000a1a7000041a80000dfa8000074a900009c
:102f60001baa0000a9aa00004dab0000deab0000c8
:102f700076ac00000ead000097ad000030ae000052
:102f8000b8ae000046af0000d1af000058b000005e
:102f9000e1b0000066b10000ebb100006db20000ce
:102fa000f1b200006fb30000f6b3000070b400008f
:102fb000f7b4000074b50000f6b500007cb6000060
:102fc000fdb6000080b700000db8000088b8000012
:102fd00033b90000b2b9000015ba0000b1ba000060
:102fe00070bb000041bc00000cbd0000d2bd000061
:102ff0008fbe00004bbf0000fbbf0000bac0000046
:1030000066c1000032c20000ebc20000c8c300006d
:103010009dc4000091c5000089c6000099c700004a
:10302000bec80000f0c9000042cb00009ccc0000ec
:1030300018ce0000a2cf000050d1000005d3000040
:10304000dbd40000b8d60000afd80000b9da000029
:10305000d3dc00000fdf000052e10000c3e30000fa
:1030600034e60000d4e8000071eb000036ee00000a
:10307000faf00000daf30000b7f60000acf9000047
:103080008ffc00008cff00006b0200006205000056
:103090003a080000260b0000f60d0000ce100000dc
:1030a0009013000046160000ed1800007b1b000086
:1030b000fb1d000058200000af220000dc240000af
:1030c0000327000004290000fb2a0000d42c000084
:1030d000a22e000057300000fb31000093330000a7
:1030e000173500008f360000ff3700005739000009
:1030f000b13a0000f63b00003a3d0000743e00008b
:10310000a13f0000d2400000ef4100001743000043
:103110002944000048450000524600006247000074
:103120006e48000068490000754a0000654b0000c9
:10313000614c0000584d00003d4e0000344f00002f
:1031400010500000fa500000d3510000b1520000ae
:10315000855300005854000026550000ec5500002f
:10316000b65600007157000032580000e4580000c5
:1031700097590000475a0000e95a0000955b00008b
:10318000285c0000ca5c0000585d0000e45d00009f
:103190006f5e0000ee5e0000685f0000e15f00000f
:1031a0004c600000b5600000196100007061000013
:1031b000c7610000136200005862000098620000be
:1031c000d1620000ff6200002e6300004763000030
:1031d0006c6300007963000083630000916300006a
:1031e0008163000083630000696300005463000092
:1031f0003163000010630000d8620000b16200007b
:10320000666200002e620000df6100009461000031
:103210004b610000f0600000a26000003f60000011
:10322000e35f0000775f00000b5f0000925e00002c
:10323000155e00008e5d0000035d00006b5c000009
:10324000d65b0000325b00008f5a0000e859000096
:10325000355900008e580000d05700002857000054
:1032600068560000b9550000ff54000047540000a4
:1032700096530000dc520000295200007b510000f0
:10328000bf5000001e500000624f0000c44e0000fe
:10329000104e00006f4d0000c94c0000224c000091
:1032a0008a4b0000e54a00004f4a0000b449000084
:1032b000204900008d480000014800006c470000d4
:1032c000ed4600005c460000e04500005a45000065
:1032d000dc4400005b440000e34300005d43000069
:1032e000ee42000060420000f24100006a4100002e
:1032f000ec4000006b400000e13f00005c3f00003c
:10330000d23e00003c3e0000b03d00000e3d0000fb
:10331000793c0000cc3b0000233b0000753a0000e4
:10332000b3390000fa3800002d380000563700008d
:103330008536000090350000ad340000a733000052
:10334000a13200008c31000062300000572f0000d5
:10335000112e0000862c0000342b0000ff290000f5
:10336000e52800009627000038260000bb24000056
:103370001223000058210000821f00008c1d000055
:103380009b1b00007b1900006d1700003f1500001b
:1033900011130000e11000009a0e0000630c000001
:1033a000120a0000d4070000840500003d0300005d
:1033b000f2000000aefe000062fc000028fa0000ef
:1033c000e1f70000b1f5000072f300004ff10000da
:1033d0001eef000005ed0000eaea0000dce8000056
:1033e000d6e60000bfe40000cbe200001be10000d5
:1033f0006adf000036dd000022db000021d900007a
:1034000041d7000088d50000f3d3000076d2000039
:103410001bd10000cfcf000099ce000075cd000079
:1034200053cc000048cb00003bca00003ec900005e
:1034300044c8000052c7000069c600007dc50000f6
:10344000a1c40000bdc30000ecc2000014c2000013
:1034500044c100007cc00000aebf0000f0be000010
:1034600029be00006dbd0000b7bc0000f5bb000028
:103470004ebb00008eba0000e9b9000036b900006a
:1034800089b80000e7b700003ab70000a0b6000016
:10349000f7b5000064b50000beb4000032b400000f
:1034a00094b300000ab3000076b20000eab1000055
:1034b00060b10000d9b000004fb00000d1af0000f3
:1034c00047af0000cbae000048ae0000caad000020
:1034d0004ead0000cfac000056ac0000d6ab0000f3
:1034e0005eab0000e3aa00006aaa0000eea900009b
:1034f00076a90000fba8000083a8000008a800002f
:103500008da700001da7000095a600002fa60000b3
:10351000a2a5000039a50000bda4000043a400003e
:10352000d9a3000055a30000f5a2000078a2000076
:1035300013a20000a7a100003aa10000dda0000036
:1035400074a0000018a00000bf9f0000619f000051
:10355000179f0000bd9e00007d9e00002c9e000075
:10356000f19d0000ae9d0000799d0000429d00008d
:10357000159d0000e79c0000c59c0000ac9c00006d
:10358000949c0000839c0000819c00006f9c0000c4
:103590007d9c00006e9c0000819c00007e9c0000d1
:1035a0008e9c00009a9c0000aa9c0000c19c000018
:1035b000d99c0000f99c00001b9d0000439d000069
:1035c000739d0000a19d0000e39d0000129e00007d
:1035d000679e0000a09e0000f99e0000449f00002e
:1035e0009f9f0000fb9f000057a00000c1a00000ab
:1035f00023a1000092a10000fea1000070a2000023
:10360000e5a200005da30000d5a3000053a40000c4
:10361000cfa4000054a50000d3a5000058a60000c8
:10362000dba600006aa70000e9a7000082a800004e
:1036300002a900009ca9000029aa0000beaa00005f
:1036400051ab0000e2ab000075ac000007ad00001c
:1036500096ad000027ae0000b4ae000044af0000fd
:10366000d3af000064b00000f5b000008bb10000e3
:103670001eb20000b8b2000051b30000ecb300006d
:103680008bb400002ab50000ccb500006db6000078
:1036900015b70000b6b700005fb8000006b900001b
:1036a000a8b9000059ba0000f6ba0000a8bb000093
:1036b0004cbc0000fcbc0000a8bd000058be0000cf
:1036c0000cbf0000bfbf00007ac0000036c1000080
:1036d000f4c10000bbc2000081c300004fc4000061
:1036e00023c50000f4c50000d8c60000b2c7000022
:1036f0009dc800008bc900007dca000077cb000088
:1037000073cc000079cd000087ce000097cf000079
:10371000bed00000dbd1000015d300004cd4000067
:103720008ed50000e5d6000034d80000a0d90000f6
:1037300006db000081dc0000f9dd000089df00000d
:103740000ee10000b1e2000047e40000eee50000f9
:1037500099e7000047e9000002eb0000b3ec00002d
:1037600078ee000031f00000fbf10000bef3000035
:1037700084f5000052f700001cf90000dcfa00009c
:10378000a0fc000064fe00007d0000002b02000091
:10379000b00300003b050000d106000073080000e4
:1037a0002c0a0000e30b0000b60d00007b0f0000a8
:1037b0005511000024130000f3140000c816000087
:1037c00085180000501a0000021c0000bc1d0000fb
:1037d000641f000004210000a32200002f24000029
:1037e000b725000039270000a5280000172a00008f
:1037f000702b0000cb2c0000132e0000572f000070
:103800008c300000bd310000df320000fa330000d0
:1038100009350000103600001037000002380000a3
:10382000f2380000ce390000b03a00007d3b0000c5
:10383000473c00000d3d0000ba3d0000793e00000d
:10384000123f0000c33f0000444000001a41000046
:1038500071410000a44100005f42000006430000e7
:10386000b443000047440000be440000304500005f
:1038700071450000c4450000eb4500001f460000f4
:10388000434600005f460000834600009946000062
:10389000b6460000d5460000ee4600001347000083
:1038a0002947000057470000734700009e4700006b
:1038b000cf470000f0470000324800005b4800009e
:1038c0009a480000d54800000e4900005449000005
:1038d00097490000de4900002e4a00007a4a0000a5
:1038e000cc4a00002a4b0000784b0000e64b000059
:1038f000324c0000a34c0000fc4c0000644d000062
:10390000c94d00002a4e0000944e0000f34e000006
:103910005c4f0000bb4f00001f50000080500000b3
:10392000dd5000003e5100009b510000f2510000ac
:1039300054520000a25200000253000050530000f5
:10394000ab530000f85300004e540000995400009f
:10395000ee5400003655000088550000d355000095
:103960001e5600006d560000b556000001570000bd
:103970004d57000097570000e15700002f580000f6
:1039800077580000c45800000e5900005e5900002e
:10399000a3590000fa5900003f5a0000915a000054
:1039a000e25a0000295b0000835b0000c85b000056
:1039b000215c00006e5c0000bd5c0000155d000035
:1039c0005a5d0000b85d0000fb5d0000535e000022
:1039d0009e5e0000e85e00003b5f00007e5f00002e
:1039e000ce5f000011600000576000009c60000086
:1039f000de6000001a6100005d6100008c61000063
:103a0000d1610000f9610000346200005e620000d4
:103a10008b620000b3620000d9620000f86200000f
:103a20001b6300002f6300004e6300005b63000017
:103a3000706300007b630000826300008c63000001
:103a4000886300008a6300008563000078630000db
:103a5000706300005b630000496300003263000094
:103a600012630000fb620000cf620000b26200003f
:103a7000816200005962000027620000f5610000c9
:103a8000bc610000836100004a6100000161000028
:103a9000cc600000766000003a600000eb5f000040
:103aa0009a5f0000545f0000f15e0000ae5e00000f
:103ab000475e0000fd5d0000955d0000415d000077
:103ac000de5c00007e5c0000205c0000b75b000054
:103ad000505b0000eb5a0000775a0000145a0000b7
:103ae000a459000036590000d85800005b58000067
:103af0000d5800008b5700003b570000c9560000ce
:103b000067560000095600009e5500003a55000017
:103b1000db54000069540000135400009953000066
:103b20003f530000cd52000068520000fe510000db
:103b30009351000029510000bd5000005550000075
:103b4000e44f00007e4f00000b4f0000a64e000027
:103b5000314e0000cc4d0000544d0000f14c0000ef
:103b6000754c0000124c0000964b00002c4b0000de
:103b7000b44a0000454a0000cf4900005e490000f9
:103b8000e648000072480000f64700007f4700004a
:103b9000024700008146000006460000794500000b
:103ba000f744000069440000d3430000494300008b
:103bb000a74200000c42000070410000b840000025
:103bc0001f400000583f0000a93e0000e73d0000f4
:103bd0001e3d0000563c00007f3b0000a53a00005f
:103be000c4390000d6380000e8370000ee36000087
:103bf000ea350000e6340000d3330000b83200009c
:103c00009c31000071300000432f00000f2e000097
:103c1000ca2c0000892b0000382a0000e22800008e
:103c20008a27000023260000b9240000502300004a
:103c3000d02100005e200000d71e00004f1d0000b4
:103c4000cb1b00002e1a0000a6180000021700006f
:103c500070150000d0130000301200009210000018
:103c6000ec0e0000440d0000a00b0000e90900006c
:103c7000410800008e060000d60400002703000063
:103c80006a010000b7ff000004fe000048fc0000cd
:103c90009efa0000e2f800003cf700008bf50000ff
:103ca000ddf300004bf20000b2f00000dbee00009c
:103cb00042ed0000d8eb000065ea0000efe80000ec
:103cc0007ce70000fae500007ce40000f3e200007d
:103cd00073e10000ecdf000064de0000ecdc0000bb
:103ce00067db0000f9d900007bd800001bd700007b
:103cf000a7d5000053d40000f0d20000a3d10000eb
:103d000053d000000ccf0000cdcd000097cc0000b8
:103d10005dcb00003cca00000dc90000f7c70000e1
:103d2000dbc60000ccc50000c2c40000bdc300005b
:103d3000bec20000ccc10000d6c00000f0bf000031
:103d40000bbf00002ebe00005abd000085bc000065
:103d5000c0bb0000f8ba00003dba000085b9000001
:103d6000d4b800002cb8000084b70000eab6000008
:103d70004db60000bfb5000030b50000afb4000084
:103d800027b40000b8b3000039b30000d5b200007a
:103d900067b2000006b20000abb100004eb10000f7
:103da00006b10000afb0000070b0000029b0000004
:103db000f0af0000b5af000081af000053af0000ce
:103dc00028af000000af0000e0ae0000beae000073
:103dd000a0ae000074ae000078ae00009eae000001
:103de00055ae000022ae0000f1ad0000cead0000e7
:103df000b7ad0000b7ad0000b1ad0000c8ad000028
:103e0000d0ad0000ecad000003ae000017ae000026
:103e100035ae000048ae00005fae000070ae00009e
:103e200081ae000090ae00009cae0000a3ae00008a
:103e3000abae0000aaae0000afae0000a6ae000020
:103e40009fae00008eae000084ae000066ae0000a3
:103e500057ae00002eae000018ae0000ecad000022
:103e6000ccad00009aad000074ad00003cad000088
:103e70000fad0000d5ac00009eac000069ac0000a6
:103e800026ac0000f0ab0000aaab00006bab00005a
:103e90002aab0000dfaa0000a1aa000052aa00007d
:103ea0000baa0000c2a9000070a900002ca9000004
:103eb000d3a800008da8000035a80000eaa70000e4
:103ec00093a7000045a70000eda600009ca60000f7
:103ed00046a60000f5a5000098a5000051a5000029
:103ee000eda40000a7a400004ca40000f7a300006c
:103ef000aaa3000050a3000005a30000b1a2000087
:103f000060a2000014a20000c3a1000078a100007c
:103f10002fa10000dfa00000a0a0000050a0000022
:103f200011a00000ce9f0000899f00004e9f00005e
:103f3000119f0000d19e0000a59e00005e9e000023
:103f40003c9e0000009e0000d79d0000aa9d00003e
:103f5000809d00005a9d00003a9d0000149d0000c5
:103f6000fb9c0000dd9c0000c79c0000b19c000091
:103f7000a09c0000909c0000889c0000799c0000a0
:103f8000799c0000739c0000759c00007a9c0000e6
:103f90007e9c00008b9c0000959c0000a79c00006c
:103fa000b89c0000d09c0000e69c0000039d00002f
:103fb0001f9d0000449d0000639d00008e9d000039
:103fc000b69d0000de9d0000159e0000399e000099
:103fd0007a9e00009f9e0000e89e0000129f000055
:103fe0005b9f00008e9f0000d59f000011a0000085
:103ff0005aa000009aa00000e3a000002ca100003d
:1040000070a10000c1a1000007a2000058a200009a
:10401000a5a20000f1a2000047a300008da30000ac
:10402000e9a3000033a4000089a40000dea400007e
:1040300029a5000089a50000d1a500002fa6000039
:104040007da60000d6a6000029a7000080a70000da
:10405000d2a700002ea800007ba80000d9a800006d
:104060002aa9000082a90000dda900002caa0000f6
:104070008daa0000dcaa000036ab00008eab000069
:10408000dcab00003aac000087ac0000e1ac000003
:1040900037ad000084ad0000e5ad00002eae00009d
:1040a0008dae0000e0ae000037af00008daf000025
:1040b000eaaf00003ab000009fb00000eeb0000090
:1040c00052b10000aab1000004b2000068b20000c2
:1040d000bcb2000026b300007cb30000e7b30000d0
:1040e00049b40000acb400001bb500007fb500006f
:1040f000f4b5000063b60000d6b600004fb700006c
:10410000ccb7000045b80000d1b8000050b900009d
:10411000e0b9000070ba000003bb00009fbb0000c4
:104120003dbc0000e1bc00008abd00003abe0000ba
:10413000efbe0000a6bf00006cc000002cc1000054
:10414000fac10000ccc20000a3c3000080c400007c
:1041500067c5000048c6000042c700002ec8000026
:104160002dc900002cca000031cb00003ecc00005d
:104170004dcd000066ce00007ccf00009fd0000037
:10418000c4d10000e9d200001dd4000045d50000d4
:1041900086d60000b6d70000ffd8000034da000051
:1041a00088db0000c2dc00001fde00005fdf0000d3
:1041b000c0e000000ce200006de30000c2e400007b
:1041c00028e6000084e70000ece800004eea00006a
:1041d000b8eb000021ed00008fee0000f9ef0000c9
:1041e0006bf10000d9f200004df40000bef50000b4
:1041f00034f70000a7f800001ffa000094fb00004d
:104200000cfd000080fe0000fcff00006d010000be
:10421000eb02000056040000d70500003f07000035
:10422000c1080000260a0000a50b0000070d0000d1
:10423000830e0000e30f000058110000bb120000c5
:104240002414000089150000ea1600004d18000033
:10425000ab190000031b0000601c0000b21d000031
:104260000b1f000056200000aa210000ef220000d2
:104270003b24000079250000ba2600000b2800002e
:10428000522900007a2a00009c2b0000c02c00005c
:10429000e12d00000e2f00003430000061310000dd
:1042a0008f320000b8330000dd3400000e3600000d
:1042b000253700005138000066390000843a0000bc
:1042c000973b0000ac3c0000b33d0000c23e000044
:1042d000c13f0000c3400000bf410000b0420000e9
:1042e000aa4300008b4400007d4500005a460000b0
:1042f0003c47000012480000e8480000b5490000b3
:10430000834a0000474b0000084c0000c64c0000e8
:104310007a4d0000344e0000da4e00008d4f000050
:1043200027500000d25000005f51000001520000f1
:10433000835200001b5300009753000022540000da
:104340009c5400001d550000945500000e560000be
:104350007f560000f55600005d570000cf57000063
:104360002e58000095580000f458000052590000e3
:10437000a7590000035a00004c5a0000a55a00003b
:10438000eb5a0000365b00007e5b0000bf5b000064
:10439000035c0000405c00007f5c0000b45c000037
:1043a000f45c0000215d00005f5d0000895d00009d
:1043b000bf5d0000ec5d0000195e00004b5e000078
:1043c0006f5e0000a25e0000c65e0000f05e0000ae
:1043d000195f00003a5f0000645f0000855f000025
:1043e000aa5f0000d15f0000e95f000014600000d8
:1043f0002a60000050600000686000008b600000d0
:104400009a600000c5600000c9600000f76000000d
:10441000fc6000001b6100002c6100003a6100009c
:104420004e61000060610000686100007f61000073
:104430007d6100009661000091610000a2610000b2
:10444000a0610000a9610000aa610000ac61000049
:10445000aa610000c2610000956100007e61000059
:1044600098610000b0610000ba610000c061000006
:10447000c1610000af610000a3610000876100001e
:104480006d610000516100002c61000011610000ad
:10449000ea600000cf600000a96000008f600000ab
:1044a0006d6000004f600000376000001760000082
:1044b00003600000ea5f0000d25f0000c55f0000fb
:1044c000ae5f0000a55f0000945f00008c5f0000fd
:1044d000815f00007e5f00007a5f0000775f000070
:1044e0007a5f0000775f0000805f0000815f00005e
:1044f000895f0000955f0000985f0000b25f0000d8
:10450000b35f0000d15f0000da5f0000f45f0000dd
:104510000f6000001d600000466000005160000058
:104520007960000092600000ac600000d460000080
:10453000e76000001161000028610000496100008f
:104540006961000088610000a3610000c66100008d
:10455000dd610000036200001862000038620000a4
:10456000546200006b62000089620000a0620000db
:10457000b5620000d5620000df6200000263000047
:104580000863000025630000336300003f63000000
:1045900055630000596300006f6300006f63000003
:1045a000806300007f630000896300008a6300006d
:1045b000896300008e63000084630000886300004c
:1045c00077630000786300006b6300005b630000aa
:1045d000566300003b630000336300001863000073
:1045e00004630000ee620000cf620000ba620000c7
:1045f000956200007c620000556200003462000099
:104600000e620000e8610000bc61000098610000db
:10461000636100003e6100000a610000da60000092
:10462000ab60000072600000436000000b6000009f
:10463000cf5f00009f5f00005b5f0000285f00000d
:10464000e75e0000af5e00006a5e0000345e0000be
:10465000e95d0000b55d00006c5d00002e5d0000ae
:10466000ea5c0000aa5c0000645c0000235c0000bf
:10467000da5b00009a5b0000525b00000c5b0000fc
:10468000ca5a00007e5a00003c5a0000f05900004f
:10469000ab5900006259000018590000cd580000c5
:1046a0008358000032580000ea570000915700007c
:1046b00049570000ea560000a35600003d5600008e
:1046c000f05500008c55000032550000d254000017
:1046d0006d54000005540000a35300002c5300004b
:1046e000c952000048520000e15100005e51000034
:1046f000e850000065500000e04f00005e4f0000f1
:10470000d14e0000454e0000b54d0000204d000088
:104710008a4c0000f04b0000524b0000b24a0000ef
:104720000d4a000064490000b74800000d48000031
:1047300053470000ae460000ec4500004345000032
:1047400085440000cd4300001c430000544200009b
:10475000a7410000de40000026400000633f00004b
:10476000a23e0000db3d0000193d00004b3c000074
:104770008a3b0000b53a0000f1390000183900000a
:104780004f3800007a370000a4360000d33500000f
:10479000f83400001f340000483300006532000088
:1047a0008c310000aa300000c62f0000e62e000069
:1047b000002e0000122d0000322c00003c2b0000c7
:1047c000592a00005f290000772800007c2700009c
:1047d0008a260000902500009524000099230000ff
:1047e0009d220000972100009d2000008f1f0000e7
:1047f000901e0000821d0000791c00006b1b000051
:104800005e1a00004e1900003c1800002517000039
:1048100012160000f5140000e2130000c51200009b
:10482000a81100008d1000006a0f00004b0e000060
:104830002e0d0000020c0000e70a0000bf09000076
:1048400098080000760700004906000027050000d0
:10485000fe030000d3020000b00100007f00000052
:1048600060ff00002ffe00000bfd0000e4fb0000d5
:10487000b7fa000096f9000069f8000046f700005a
:1048800020f60000f9f40000d8f30000b4f20000b4
:1048900092f1000071f0000051ef000033ee0000d3
:1048a00015ed0000f8eb0000e1ea0000c0e90000af
:1048b000b4e800008de700008ae6000066e500002d
:1048c0005fe4000049e300003ee200002fe1000049
:1048d00027e0000018df000019de000009dd0000fd
:1048e00011dc000001db00000eda000004d900003a
:1048f00011d8000011d7000019d6000027d50000fc
:104900002dd400003ed3000050d200005ad1000048
:1049100078d0000084cf0000a5ce0000bacd000002
:10492000d7cc0000f9cb000012cb00003dca00003c
:1049300060c9000083c80000b7c70000d4c60000eb
:1049400013c6000037c5000070c40000a4c30000f7
:10495000d8c2000018c200004fc1000091c0000082
:10496000cdbf000015bf000054be00009fbd000079
:10497000e7bc000034bc00007fbb0000d4ba0000dc
:104980001dba00007cb90000ccb8000025b80000ba
:1049900086b70000d9b6000043b600009cb5000001
:1049a00005b5000069b40000d0b300003cb30000be
:1049b000abb2000016b200008fb10000fcb00000e6
:1049c00078b00000f6af000065af0000f6ae000062
:1049d00068ae0000f5ad00007bad000001ad000049
:1049e00094ac00001dac0000b2ab000046ab000070
:1049f000ddaa000076aa000015aa0000b4a90000f4
:104a000055a90000ffa80000a0a8000054a80000bd
:104a1000fea70000aca7000065a7000013a70000d8
:104a2000d4a6000087a6000046a6000006a6000047
:104a3000c5a5000086a5000056a500000ba5000036
:104a4000eea40000a5a4000070a4000037a400009c
:104a50000ea40000f5a30000c3a30000aca3000057
:104a600077a3000055a3000025a30000f9a20000d1
:104a7000caa20000a0a200006ca200004aa200008e
:104a800014a20000f0a10000c5a1000096a1000042
:104a900077a1000046a1000025a1000001a10000af
:104aa000d5a00000bca0000093a0000074a00000ee
:104ab00055a0000035a0000015a00000fe9f0000da
:104ac000d89f0000c89f0000a49f0000929f000094
:104ad000769f0000609f00004c9f0000339f000005
:104ae000249f0000099f0000ff9e0000e79e000039
:104af000dc9e0000c89e0000bd9e0000ac9e000031
:104b0000a19e0000929e0000869e00007a9e0000fa
:104b10006e9e0000639e00005b9e00004c9e0000a5
:104b2000469e00003b9e0000309e00002a9e000032
:104b30001c9e0000189e00000c9e00000b9e0000b2
:104b4000fa9d0000fa9d0000ea9d0000ec9d000027
:104b5000dd9d0000dc9d0000cf9d0000cb9d00008e
:104b6000c79d0000b79d0000bd9d0000a89d0000ee
:104b7000ae9d0000a19d0000979d00009a9d000041
:104b8000839d00008c9d00007a9d0000779d0000b1
:104b9000709d0000669d00005f9d0000589d000014
:104ba0004f9d00004b9d0000429d0000349d000081
:104bb000379d0000219d0000249d0000169d0000ef
:104bc0000c9d00000c9d0000fa9c0000fa9c000067
:104bd000eb9c0000eb9c0000de9c0000d59c0000dc
:104be000d29c0000c49c0000c79c0000b79c000041
:104bf000b59c0000ab9c0000ab9c00009d9c00009d
:104c0000a29c0000919c0000969c00008b9c0000e0
:104c10008c9c0000859c0000869c00007e9c00000f
:104c2000809c00007d9c00007a9c00007b9c000022
:104c30007b9c0000799c00007f9c00007b9c000016
:104c4000819c0000819c0000889c0000759c0000f5
:104c5000879c0000b69c0000ad9c0000909c00006a
:104c60008a9c0000769c00007d9c00007b9c0000dc
:104c7000909c00009a9c0000b89c0000c69c00001c
:104c8000ec9c0000fb9c00001f9d0000389d000074
:104c90004f9d0000749d0000839d0000a69d0000b4
:104ca000bc9d0000d39d0000ee9d0000049e00000e
:104cb000169e0000319e0000429e0000539e0000a0
:104cc0006a9e0000729e00008a9e0000969e000070
:104cd000a09e0000b49e0000b89e0000cb9e000085
:104ce000d39e0000da9e0000ec9e0000ea9e0000c9
:104cf000019f0000ff9e00000f9f0000169f000014
:104d00001f9f0000289f0000369f0000379f000073
:104d10004f9f00004b9f0000679f0000679f0000af
:104d2000829f0000849f0000a09f0000a69f0000bb
:104d3000c39f0000cc9f0000ef9f0000f59f000084
:104d40001ea0000029a000004da0000067a00000e8
:104d500089a00000a2a00000cca00000e8a00000f4
:104d600012a1000039a100005ea1000091a1000085
:104d7000b4a10000f1a1000013a2000050a20000a5
:104d800081a20000baa20000f4a2000030a300003b
:104d90006da30000b3a30000f0a300003ca400003a
:104da0007ea40000cea400001aa500006fa500009c
:104db000bda5000019a600006fa60000cda600004a
:104dc0002ba700008fa70000f4a7000061a8000037
:104dd000c5a800003ea90000a5a9000029aa00005e
:104de00098aa00001bab00009bab000019ac0000b0
:104df000a6ac00002bad0000bcad000048ae00002a
:104e0000dbae000074af000006b00000a9b00000e7
:104e10003fb10000e3b1000087b2000029b30000f9
:104e2000d2b300007bb4000025b50000d3b500006c
:104e300083b6000031b70000e7b7000097b8000064
:104e400050b9000002ba0000c1ba000071bb0000f6
:104e500038bc0000e5bc0000afbd000065be00002e
:104e600024bf0000ebbf00009fc000006ec1000027
:104e700028c20000efc20000b5c3000077c40000e4
:104e80003fc500000bc60000cac60000a1c7000055
:104e90005dc8000037c90000fbc90000ceca000091
:104ea000a0cb00006dcc000046cd000014ce000069
:104eb000f0ce0000bfcf0000a3d000006fd10000f3
:104ec0005ad200002dd3000011d40000f3d400000a
:104ed000ccd50000bed6000095d7000089d80000d0
:104ee0006bd9000053da000049db000029dc000028
:104ef00025dd000011de000002df0000ffdf000002
:104f0000e9e00000ece10000dde20000dce300008d
:104f1000dae40000d4e50000d4e60000d8e70000a1
:104f2000d7e80000dfe90000deea0000eceb00005b
:104f3000ecec0000f9ed0000ffee00000ef00000c8
:104f400019f1000024f2000032f300003ff40000e9
:104f50004ef5000060f600006df7000080f80000dc
:104f60008ef90000a2fa0000b2fb0000c3fc0000b2
:104f7000d9fd0000e3fe0000000000000201000077
:104f8000240200002703000042040000490500003d
:104f9000600600006a0700007d0800008509000027
:104fa0009a0a00009d0b0000ad0c0000b90d000036
:104fb000bd0e0000cf0f0000cc100000d911000082
:104fc000df120000dc130000e9140000e11500000e
:104fd000e9160000e6170000e1180000e5190000de
:104fe000d91a0000dc1b0000cd1c0000cc1d000005
:104ff000bc1e0000b81f0000a72000009e2100007a
:105000008c2200007c2300006e240000522500004a
:105010004b2600002727000017280000ff2800006b
:10502000dc290000cd2a0000a22b00008b2c000000
:10503000692d0000452e0000212f000000300000e7
:10504000d1300000b23100007d3200005c3300003e
:105050002234000000350000c23500009a360000fe
:105060005d3700002b380000f1380000b739000030
:105070007f3a00003d3b0000033c0000c03c0000c4
:105080007c3d00003d3e0000f03e0000ad3f0000d2
:105090006240000014410000cb4100007942000052
:1050a00029430000d8430000804400002c45000044
:1050b000d54500007446000024470000b7470000b3
:1050c0006b480000f6480000a0490000354a000087
:1050d000d04a00006b4b0000fb4b0000924c0000dc
:1050e000254d0000b34d0000424e0000d24e00009e
:1050f000574f0000e44f00006a500000e7500000e6
:1051000078510000e851000078520000e65200009b
:105110006c530000dd53000059540000c9540000d6
:105120003e550000ac5500001e560000865600009b
:10513000f35600005a570000be57000024580000e4
:1051400083580000e45800003e5900009c590000bc
:10515000f25900004b5a00009f5a0000ef5a00001d
:10516000435b00008e5b0000dc5b0000255c000000
:105170006e5c0000b55c0000fb5c0000395d000067
:105180007e5d0000b85d0000fb5d0000335e000046
:105190006c5e0000aa5e0000d55e00001a5f000091
:1051a0003d5f00007e5f0000a55f0000d85f00004b
:1051b0000660000031600000616000008560000052
:1051c000b5600000d7600000ff60000029610000aa
:1051d00045610000716100008d610000ad6100005b
:1051e000d4610000e861000010620000236200004a
:1051f000376200006f62000080620000926200006f
:105200009c620000a0620000ba620000be62000062
:10521000d9620000e7620000fc6200000e6300003b
:10522000236300003063000045630000506300000a
:105230005f6300006b630000736300007d63000028
:10524000816300008a630000886300008b630000b4
:105250008a63000085630000826300007a630000b7
:105260006f63000069630000566300004d63000037
:10527000396300002963000012630000026300002c
:10528000e4620000d5620000b0620000a06200008d
:105290007a62000063620000456200002062000044
:1052a00006620000dd610000c3610000986100003b
:1052b00078610000516100002d610000056100006f
:1052c000df600000b76000008d60000068600000d3
:1052d0003b60000013600000e95f0000bc5f00005d
:1052e000925f0000655f0000395f00000e5f000004
:1052f000dd5e0000b25e0000815e0000525e0000d4
:10530000255e0000ef5d0000c85d00008b5d0000c1
:10531000635d00002c5d0000f85c0000ca5c0000ca
:105320008e5c0000605c0000245c0000f45b000008
:10533000bb5b0000855b00004b5b0000145b000062
:10534000da5a0000a15a0000665a0000295a0000eb
:10535000f2590000b15900007a5900003759000095
:10536000fd580000be5800007c5800004358000063
:10537000fb570000c55700007c5700004057000055
:10538000fe560000bc5600007a5600003a56000057
:10539000f5550000b6550000715500002e5500006f
:1053a000ed540000a85400006a540000225400008c
:1053b000e25300009d5300005b53000017530000b0
:1053c000d3520000935200004b5200000f520000d5
:1053d000c25100008a5100003e510000ff50000001
:1053e000bc5000007650000037500000eb4f00002a
:1053f000c74f00006a4f0000074f0000d74e000063
:10540000a74e00007f4e00004a4e0000124e0000e2
:10541000d14d00008c4d0000404d0000f84c0000c4
:10542000a64c0000594c00000b4c0000b94b00008a
:10543000704b00001b4b0000d64a0000844a00005d
:10544000414a0000f4490000ad4900006a490000eb
:1054500020490000e64800009d4800006648000022
:105460001f480000ed470000ac47000076470000f1
:105470004147000006470000db4600009e46000052
:10548000754600004046000014460000e14500005b
:10549000ba45000087450000624500003545000020
:1054a00008450000e5440000b444000094440000b6
:1054b000624400004444000014440000f043000033
:1054c000c44300009f430000734300004c430000ae
:1054d00020430000f7420000c9420000a142000042
:1054e000714200004642000016420000ea410000fe
:1054f000b44100008a4100004f41000022410000f9
:10550000e9400000b44000007b4000004340000040
:1055100008400000ca3f0000913f00004f3f0000dc
:105520000e3f0000cf3e0000873e0000473e0000d7
:10553000fc3d0000b53d00006b3d0000213d00003a
:10554000d13c0000873c00002e3c0000e63b000000
:105550008a3b0000383b0000e63a0000833a000036
:10556000363a0000d1390000763900001c390000bd
:10557000b13800005e380000ec37000092370000c0
:1055800027370000bf36000058360000e93500001c
:105590008035000011350000a13400002e340000d9
:1055a000c233000041330000dd32000055320000fc
:1055b000e73100006a310000ec3000007430000078
:1055c000f12f0000752f0000f02e0000732e000058
:1055d000e62d00006b2d0000dc2c0000582c000094
:1055e000cf2b00003e2b0000ba2a0000242a000026
:1055f0009e290000042900007b280000de2700000f
:1056000055270000b6260000242600008a25000049
:10561000ef24000058240000b62300001f230000e0
:105620007e220000dd2100003c21000099200000c6
:10563000f71f00004f1f0000ad1e0000011e0000fc
:105640005d1d0000b31c0000021c0000601b000078
:10565000a81a0000051a0000501900009d1800004b
:10566000f61700003517000094160000d115000051
:10567000251500006e140000b31300000213000093
:10568000471200008c110000da1000001610000014
:10569000650f0000a10e0000ef0d00002a0d0000b4
